{
  "address": "0x5FbDB2315678afecb367f032d93F642f64180aa3",
  "abi": [
    {
      "inputs": [],
      "name": "Withdraw_NotSuccessful",
      "type": "error"
    },
    {
      "inputs": [
        {
          "internalType": "uint256",
          "name": "campaignId",
          "type": "uint256"
        }
      ],
      "name": "fund",
      "outputs": [],
      "stateMutability": "payable",
      "type": "function"
    },
    {
      "inputs": [
        {
          "internalType": "address",
          "name": "funderAddress",
          "type": "address"
        }
      ],
      "name": "getAmountFundedByFunder",
      "outputs": [
        {
          "internalType": "uint256",
          "name": "",
          "type": "uint256"
        }
      ],
      "stateMutability": "view",
      "type": "function"
    },
    {
      "inputs": [],
      "name": "getBalance",
      "outputs": [
        {
          "internalType": "uint256",
          "name": "",
          "type": "uint256"
        }
      ],
      "stateMutability": "view",
      "type": "function"
    },
    {
      "inputs": [
        {
          "internalType": "uint256",
          "name": "campaignId",
          "type": "uint256"
        }
      ],
      "name": "getCampaignFunders",
      "outputs": [
        {
          "internalType": "address[]",
          "name": "",
          "type": "address[]"
        }
      ],
      "stateMutability": "view",
      "type": "function"
    },
    {
      "inputs": [
        {
          "internalType": "uint256",
          "name": "campaignId",
          "type": "uint256"
        }
      ],
      "name": "getCampaignTotalAmountFunded",
      "outputs": [
        {
          "internalType": "uint256",
          "name": "",
          "type": "uint256"
        }
      ],
      "stateMutability": "view",
      "type": "function"
    },
    {
      "inputs": [
        {
          "internalType": "uint256",
          "name": "amount",
          "type": "uint256"
        },
        {
          "internalType": "address",
          "name": "receiver",
          "type": "address"
        }
      ],
      "name": "withdraw",
      "outputs": [],
      "stateMutability": "payable",
      "type": "function"
    }
  ],
  "transactionHash": "0xc648917c0324f955770102082a2e242c0ee55f0425f4d360b6b6c5ead137ff86",
  "args": [],
  "numDeployments": 1,
  "solcInputHash": "ed5d66f30113f6a30ae3dce3a06e9972",
  "bytecode": "0x608060405234801561001057600080fd5b5061085c806100206000396000f3fe6080604052600436106100545760003560e01c8062f714ce1461005957806305903e061461007557806312065fe0146100b257806316666b3f146100dd5780637359b9511461011a578063ca1d209d14610157575b600080fd5b610073600480360381019061006e9190610537565b610173565b005b34801561008157600080fd5b5061009c60048036038101906100979190610577565b610234565b6040516100a99190610662565b60405180910390f35b3480156100be57600080fd5b506100c76102d5565b6040516100d49190610693565b60405180910390f35b3480156100e957600080fd5b5061010460048036038101906100ff91906106ae565b6102f0565b6040516101119190610693565b60405180910390f35b34801561012657600080fd5b50610141600480360381019061013c9190610577565b610339565b60405161014e9190610693565b60405180910390f35b610171600480360381019061016c9190610577565b610356565b005b6000670de0b6b3a764000083610189919061070a565b905060008273ffffffffffffffffffffffffffffffffffffffff16826040516101b19061077d565b60006040518083038185875af1925050503d80600081146101ee576040519150601f19603f3d011682016040523d82523d6000602084013e6101f3565b606091505b505090508061022e576040517f1dce298d00000000000000000000000000000000000000000000000000000000815260040160405180910390fd5b50505050565b6060600260008381526020019081526020016000208054806020026020016040519081016040528092919081815260200182805480156102c957602002820191906000526020600020905b8160009054906101000a900473ffffffffffffffffffffffffffffffffffffffff1673ffffffffffffffffffffffffffffffffffffffff168152602001906001019080831161027f575b50505050509050919050565b6000670de0b6b3a7640000476102eb91906107c1565b905090565b6000600160008373ffffffffffffffffffffffffffffffffffffffff1673ffffffffffffffffffffffffffffffffffffffff168152602001908152602001600020549050919050565b600060036000838152602001908152602001600020549050919050565b34600160003373ffffffffffffffffffffffffffffffffffffffff1673ffffffffffffffffffffffffffffffffffffffff1681526020019081526020016000208190555060026000828152602001908152602001600020339080600181540180825580915050600190039060005260206000200160009091909190916101000a81548173ffffffffffffffffffffffffffffffffffffffff021916908373ffffffffffffffffffffffffffffffffffffffff1602179055503460036000838152602001908152602001600020600082825461043191906107f2565b925050819055506000339080600181540180825580915050600190039060005260206000200160009091909190916101000a81548173ffffffffffffffffffffffffffffffffffffffff021916908373ffffffffffffffffffffffffffffffffffffffff16021790555050565b600080fd5b6000819050919050565b6104b6816104a3565b81146104c157600080fd5b50565b6000813590506104d3816104ad565b92915050565b600073ffffffffffffffffffffffffffffffffffffffff82169050919050565b6000610504826104d9565b9050919050565b610514816104f9565b811461051f57600080fd5b50565b6000813590506105318161050b565b92915050565b6000806040838503121561054e5761054d61049e565b5b600061055c858286016104c4565b925050602061056d85828601610522565b9150509250929050565b60006020828403121561058d5761058c61049e565b5b600061059b848285016104c4565b91505092915050565b600081519050919050565b600082825260208201905092915050565b6000819050602082019050919050565b6105d9816104f9565b82525050565b60006105eb83836105d0565b60208301905092915050565b6000602082019050919050565b600061060f826105a4565b61061981856105af565b9350610624836105c0565b8060005b8381101561065557815161063c88826105df565b9750610647836105f7565b925050600181019050610628565b5085935050505092915050565b6000602082019050818103600083015261067c8184610604565b905092915050565b61068d816104a3565b82525050565b60006020820190506106a86000830184610684565b92915050565b6000602082840312156106c4576106c361049e565b5b60006106d284828501610522565b91505092915050565b7f4e487b7100000000000000000000000000000000000000000000000000000000600052601160045260246000fd5b6000610715826104a3565b9150610720836104a3565b925082820261072e816104a3565b91508282048414831517610745576107446106db565b5b5092915050565b600081905092915050565b50565b600061076760008361074c565b915061077282610757565b600082019050919050565b60006107888261075a565b9150819050919050565b7f4e487b7100000000000000000000000000000000000000000000000000000000600052601260045260246000fd5b60006107cc826104a3565b91506107d7836104a3565b9250826107e7576107e6610792565b5b828204905092915050565b60006107fd826104a3565b9150610808836104a3565b92508282019050808211156108205761081f6106db565b5b9291505056fea2646970667358221220466fe5f5cd6f5f00977f1e084f915c3e9c296a28d6e6a05c8ad21afe2a453baa64736f6c63430008130033",
  "devdoc": {
    "kind": "dev",
    "methods": {},
    "version": 1
  },
  "userdoc": {
    "kind": "user",
    "methods": {},
    "version": 1
  },
  "storageLayout": {
    "storage": [
      {
        "astId": 6,
        "contract": "contracts/ChainFund.sol:ChainFund",
        "label": "funders",
        "offset": 0,
        "slot": "0",
        "type": "t_array(t_address)dyn_storage"
      },
      {
        "astId": 10,
        "contract": "contracts/ChainFund.sol:ChainFund",
        "label": "addressToAmountFunded",
        "offset": 0,
        "slot": "1",
        "type": "t_mapping(t_address,t_uint256)"
      },
      {
        "astId": 15,
        "contract": "contracts/ChainFund.sol:ChainFund",
        "label": "campaignFundedBy",
        "offset": 0,
        "slot": "2",
        "type": "t_mapping(t_uint256,t_array(t_address)dyn_storage)"
      },
      {
        "astId": 19,
        "contract": "contracts/ChainFund.sol:ChainFund",
        "label": "campaignAmountFunded",
        "offset": 0,
        "slot": "3",
        "type": "t_mapping(t_uint256,t_uint256)"
      }
    ],
    "types": {
      "t_address": {
        "encoding": "inplace",
        "label": "address",
        "numberOfBytes": "20"
      },
      "t_array(t_address)dyn_storage": {
        "base": "t_address",
        "encoding": "dynamic_array",
        "label": "address[]",
        "numberOfBytes": "32"
      },
      "t_mapping(t_address,t_uint256)": {
        "encoding": "mapping",
        "key": "t_address",
        "label": "mapping(address => uint256)",
        "numberOfBytes": "32",
        "value": "t_uint256"
      },
      "t_mapping(t_uint256,t_array(t_address)dyn_storage)": {
        "encoding": "mapping",
        "key": "t_uint256",
        "label": "mapping(uint256 => address[])",
        "numberOfBytes": "32",
        "value": "t_array(t_address)dyn_storage"
      },
      "t_mapping(t_uint256,t_uint256)": {
        "encoding": "mapping",
        "key": "t_uint256",
        "label": "mapping(uint256 => uint256)",
        "numberOfBytes": "32",
        "value": "t_uint256"
      },
      "t_uint256": {
        "encoding": "inplace",
        "label": "uint256",
        "numberOfBytes": "32"
      }
    }
  }
}