{
  "address": "0xCae9265d11C9419CBaa23a750e97c8eC70aE5279",
  "abi": [
    {
      "inputs": [
        {
          "internalType": "address",
          "name": "priceFeedAddress",
          "type": "address"
        },
        {
          "internalType": "address",
          "name": "owner",
          "type": "address"
        }
      ],
      "stateMutability": "nonpayable",
      "type": "constructor"
    },
    {
      "inputs": [],
      "name": "Audiophile_NotOwner",
      "type": "error"
    },
    {
      "inputs": [],
      "name": "Withdraw_NotSuccessful",
      "type": "error"
    },
    {
      "inputs": [
        {
          "internalType": "uint256",
          "name": "productId",
          "type": "uint256"
        }
      ],
      "name": "fund",
      "outputs": [],
      "stateMutability": "payable",
      "type": "function"
    },
    {
      "inputs": [],
      "name": "getBalance",
      "outputs": [
        {
          "internalType": "uint256",
          "name": "",
          "type": "uint256"
        }
      ],
      "stateMutability": "view",
      "type": "function"
    },
    {
      "inputs": [],
      "name": "getPriceFeed",
      "outputs": [
        {
          "internalType": "contract AggregatorV3Interface",
          "name": "",
          "type": "address"
        }
      ],
      "stateMutability": "view",
      "type": "function"
    },
    {
      "inputs": [
        {
          "internalType": "uint256",
          "name": "productId",
          "type": "uint256"
        }
      ],
      "name": "getProductBuyers",
      "outputs": [
        {
          "internalType": "address[]",
          "name": "",
          "type": "address[]"
        }
      ],
      "stateMutability": "view",
      "type": "function"
    },
    {
      "inputs": [
        {
          "internalType": "uint256",
          "name": "amount",
          "type": "uint256"
        },
        {
          "internalType": "address",
          "name": "receiver",
          "type": "address"
        }
      ],
      "name": "sendTo",
      "outputs": [],
      "stateMutability": "payable",
      "type": "function"
    }
  ],
  "transactionHash": "0xa54a6a9a1f0889c92f5873abef8cbe7ede8ebeeaee639b436bc7271122e2b946",
  "args": [
    "0x694AA1769357215DE4FAC081bf1f309aDC325306",
    "0xDb3457f14a99cBCa05021d1eb396c89837970dCf"
  ],
  "numDeployments": 2,
  "solcInputHash": "512601094df3bea9bf5d6abdb8f3e3b3",
  "bytecode": "0x60a060405234801561001057600080fd5b5060405161080138038061080183398181016040528101906100329190610111565b81600160006101000a81548173ffffffffffffffffffffffffffffffffffffffff021916908373ffffffffffffffffffffffffffffffffffffffff1602179055508073ffffffffffffffffffffffffffffffffffffffff1660808173ffffffffffffffffffffffffffffffffffffffff16815250505050610151565b600080fd5b600073ffffffffffffffffffffffffffffffffffffffff82169050919050565b60006100de826100b3565b9050919050565b6100ee816100d3565b81146100f957600080fd5b50565b60008151905061010b816100e5565b92915050565b60008060408385031215610128576101276100ae565b5b6000610136858286016100fc565b9250506020610147858286016100fc565b9150509250929050565b60805161069561016c60003960006101ee01526106956000f3fe60806040526004361061004a5760003560e01c80630fb9398f1461004f57806312065fe01461008c5780639e87a5cd146100b7578063b3d05678146100e2578063ca1d209d146100fe575b600080fd5b34801561005b57600080fd5b50610076600480360381019061007191906103ca565b61011a565b60405161008391906104e7565b60405180910390f35b34801561009857600080fd5b506100a16101ba565b6040516100ae9190610518565b60405180910390f35b3480156100c357600080fd5b506100cc6101c2565b6040516100d99190610592565b60405180910390f35b6100fc60048036038101906100f791906105d9565b6101ec565b005b610118600480360381019061011391906103ca565b610319565b005b60606000808381526020019081526020016000208054806020026020016040519081016040528092919081815260200182805480156101ae57602002820191906000526020600020905b8160009054906101000a900473ffffffffffffffffffffffffffffffffffffffff1673ffffffffffffffffffffffffffffffffffffffff1681526020019060010190808311610164575b50505050509050919050565b600047905090565b6000600160009054906101000a900473ffffffffffffffffffffffffffffffffffffffff16905090565b7f000000000000000000000000000000000000000000000000000000000000000073ffffffffffffffffffffffffffffffffffffffff163373ffffffffffffffffffffffffffffffffffffffff1614610271576040517fca0d8feb00000000000000000000000000000000000000000000000000000000815260040160405180910390fd5b60008173ffffffffffffffffffffffffffffffffffffffff16836040516102979061064a565b60006040518083038185875af1925050503d80600081146102d4576040519150601f19603f3d011682016040523d82523d6000602084013e6102d9565b606091505b5050905080610314576040517f1dce298d00000000000000000000000000000000000000000000000000000000815260040160405180910390fd5b505050565b600080828152602001908152602001600020339080600181540180825580915050600190039060005260206000200160009091909190916101000a81548173ffffffffffffffffffffffffffffffffffffffff021916908373ffffffffffffffffffffffffffffffffffffffff16021790555050565b600080fd5b6000819050919050565b6103a781610394565b81146103b257600080fd5b50565b6000813590506103c48161039e565b92915050565b6000602082840312156103e0576103df61038f565b5b60006103ee848285016103b5565b91505092915050565b600081519050919050565b600082825260208201905092915050565b6000819050602082019050919050565b600073ffffffffffffffffffffffffffffffffffffffff82169050919050565b600061044e82610423565b9050919050565b61045e81610443565b82525050565b60006104708383610455565b60208301905092915050565b6000602082019050919050565b6000610494826103f7565b61049e8185610402565b93506104a983610413565b8060005b838110156104da5781516104c18882610464565b97506104cc8361047c565b9250506001810190506104ad565b5085935050505092915050565b600060208201905081810360008301526105018184610489565b905092915050565b61051281610394565b82525050565b600060208201905061052d6000830184610509565b92915050565b6000819050919050565b600061055861055361054e84610423565b610533565b610423565b9050919050565b600061056a8261053d565b9050919050565b600061057c8261055f565b9050919050565b61058c81610571565b82525050565b60006020820190506105a76000830184610583565b92915050565b6105b681610443565b81146105c157600080fd5b50565b6000813590506105d3816105ad565b92915050565b600080604083850312156105f0576105ef61038f565b5b60006105fe858286016103b5565b925050602061060f858286016105c4565b9150509250929050565b600081905092915050565b50565b6000610634600083610619565b915061063f82610624565b600082019050919050565b600061065582610627565b915081905091905056fea26469706673582212203de9efdb14d3635017dc16e8cf51dbf7369ff914141ad7dd1f8118025931e33c64736f6c63430008130033",
  "devdoc": {
    "kind": "dev",
    "methods": {},
    "version": 1
  },
  "userdoc": {
    "kind": "user",
    "methods": {},
    "version": 1
  },
  "storageLayout": {
    "storage": [
      {
        "astId": 60,
        "contract": "contracts/Audiophile.sol:Audiophile",
        "label": "productBoughtBy",
        "offset": 0,
        "slot": "0",
        "type": "t_mapping(t_uint256,t_array(t_address)dyn_storage)"
      },
      {
        "astId": 63,
        "contract": "contracts/Audiophile.sol:Audiophile",
        "label": "s_priceFeed",
        "offset": 0,
        "slot": "1",
        "type": "t_contract(AggregatorV3Interface)45"
      }
    ],
    "types": {
      "t_address": {
        "encoding": "inplace",
        "label": "address",
        "numberOfBytes": "20"
      },
      "t_array(t_address)dyn_storage": {
        "base": "t_address",
        "encoding": "dynamic_array",
        "label": "address[]",
        "numberOfBytes": "32"
      },
      "t_contract(AggregatorV3Interface)45": {
        "encoding": "inplace",
        "label": "contract AggregatorV3Interface",
        "numberOfBytes": "20"
      },
      "t_mapping(t_uint256,t_array(t_address)dyn_storage)": {
        "encoding": "mapping",
        "key": "t_uint256",
        "label": "mapping(uint256 => address[])",
        "numberOfBytes": "32",
        "value": "t_array(t_address)dyn_storage"
      },
      "t_uint256": {
        "encoding": "inplace",
        "label": "uint256",
        "numberOfBytes": "32"
      }
    }
  }
}