{
  "address": "0x7CEb4Ae80317e8387218872C803F641ac3Be2d10",
  "abi": [
    {
      "inputs": [
        {
          "internalType": "address",
          "name": "priceFeedAddress",
          "type": "address"
        }
      ],
      "stateMutability": "nonpayable",
      "type": "constructor"
    },
    {
      "inputs": [],
      "name": "Withdraw_NotSuccessful",
      "type": "error"
    },
    {
      "inputs": [
        {
          "internalType": "uint256",
          "name": "productId",
          "type": "uint256"
        }
      ],
      "name": "fund",
      "outputs": [],
      "stateMutability": "payable",
      "type": "function"
    },
    {
      "inputs": [],
      "name": "getBalance",
      "outputs": [
        {
          "internalType": "uint256",
          "name": "",
          "type": "uint256"
        }
      ],
      "stateMutability": "view",
      "type": "function"
    },
    {
      "inputs": [],
      "name": "getPriceFeed",
      "outputs": [
        {
          "internalType": "contract AggregatorV3Interface",
          "name": "",
          "type": "address"
        }
      ],
      "stateMutability": "view",
      "type": "function"
    },
    {
      "inputs": [
        {
          "internalType": "uint256",
          "name": "productId",
          "type": "uint256"
        }
      ],
      "name": "getProductBuyers",
      "outputs": [
        {
          "internalType": "address[]",
          "name": "",
          "type": "address[]"
        }
      ],
      "stateMutability": "view",
      "type": "function"
    },
    {
      "inputs": [
        {
          "internalType": "uint256",
          "name": "amount",
          "type": "uint256"
        },
        {
          "internalType": "address",
          "name": "receiver",
          "type": "address"
        }
      ],
      "name": "sendTo",
      "outputs": [],
      "stateMutability": "payable",
      "type": "function"
    }
  ],
  "transactionHash": "0x8391f637426af7a5ef7f144e8c1f57ed6c39e0f783f74715be4f37cdda802e4c",
  "args": [
    "0x694AA1769357215DE4FAC081bf1f309aDC325306"
  ],
  "numDeployments": 1,
  "solcInputHash": "8882827005d40407b7f826d8e4f32dd9",
  "bytecode": "0x608060405234801561001057600080fd5b5060405161079b38038061079b833981810160405281019061003291906100dc565b80600160006101000a81548173ffffffffffffffffffffffffffffffffffffffff021916908373ffffffffffffffffffffffffffffffffffffffff16021790555050610109565b600080fd5b600073ffffffffffffffffffffffffffffffffffffffff82169050919050565b60006100a98261007e565b9050919050565b6100b98161009e565b81146100c457600080fd5b50565b6000815190506100d6816100b0565b92915050565b6000602082840312156100f2576100f1610079565b5b6000610100848285016100c7565b91505092915050565b610683806101186000396000f3fe60806040526004361061004a5760003560e01c80630fb9398f1461004f57806312065fe01461008c5780639e87a5cd146100b7578063b3d05678146100e2578063ca1d209d146100fe575b600080fd5b34801561005b57600080fd5b5061007660048036038101906100719190610358565b61011a565b6040516100839190610475565b60405180910390f35b34801561009857600080fd5b506100a16101ba565b6040516100ae91906104a6565b60405180910390f35b3480156100c357600080fd5b506100cc6101d5565b6040516100d99190610520565b60405180910390f35b6100fc60048036038101906100f79190610567565b6101ff565b005b61011860048036038101906101139190610358565b6102a7565b005b60606000808381526020019081526020016000208054806020026020016040519081016040528092919081815260200182805480156101ae57602002820191906000526020600020905b8160009054906101000a900473ffffffffffffffffffffffffffffffffffffffff1673ffffffffffffffffffffffffffffffffffffffff1681526020019060010190808311610164575b50505050509050919050565b6000670de0b6b3a7640000476101d091906105d6565b905090565b6000600160009054906101000a900473ffffffffffffffffffffffffffffffffffffffff16905090565b60008173ffffffffffffffffffffffffffffffffffffffff168360405161022590610638565b60006040518083038185875af1925050503d8060008114610262576040519150601f19603f3d011682016040523d82523d6000602084013e610267565b606091505b50509050806102a2576040517f1dce298d00000000000000000000000000000000000000000000000000000000815260040160405180910390fd5b505050565b600080828152602001908152602001600020339080600181540180825580915050600190039060005260206000200160009091909190916101000a81548173ffffffffffffffffffffffffffffffffffffffff021916908373ffffffffffffffffffffffffffffffffffffffff16021790555050565b600080fd5b6000819050919050565b61033581610322565b811461034057600080fd5b50565b6000813590506103528161032c565b92915050565b60006020828403121561036e5761036d61031d565b5b600061037c84828501610343565b91505092915050565b600081519050919050565b600082825260208201905092915050565b6000819050602082019050919050565b600073ffffffffffffffffffffffffffffffffffffffff82169050919050565b60006103dc826103b1565b9050919050565b6103ec816103d1565b82525050565b60006103fe83836103e3565b60208301905092915050565b6000602082019050919050565b600061042282610385565b61042c8185610390565b9350610437836103a1565b8060005b8381101561046857815161044f88826103f2565b975061045a8361040a565b92505060018101905061043b565b5085935050505092915050565b6000602082019050818103600083015261048f8184610417565b905092915050565b6104a081610322565b82525050565b60006020820190506104bb6000830184610497565b92915050565b6000819050919050565b60006104e66104e16104dc846103b1565b6104c1565b6103b1565b9050919050565b60006104f8826104cb565b9050919050565b600061050a826104ed565b9050919050565b61051a816104ff565b82525050565b60006020820190506105356000830184610511565b92915050565b610544816103d1565b811461054f57600080fd5b50565b6000813590506105618161053b565b92915050565b6000806040838503121561057e5761057d61031d565b5b600061058c85828601610343565b925050602061059d85828601610552565b9150509250929050565b7f4e487b7100000000000000000000000000000000000000000000000000000000600052601260045260246000fd5b60006105e182610322565b91506105ec83610322565b9250826105fc576105fb6105a7565b5b828204905092915050565b600081905092915050565b50565b6000610622600083610607565b915061062d82610612565b600082019050919050565b600061064382610615565b915081905091905056fea26469706673582212206639a8181a5491e968b22e9ffd12bab9a9f388cc9e3765b4d25380a6f869aaa864736f6c63430008130033",
  "devdoc": {
    "kind": "dev",
    "methods": {},
    "version": 1
  },
  "userdoc": {
    "kind": "user",
    "methods": {},
    "version": 1
  },
  "storageLayout": {
    "storage": [
      {
        "astId": 58,
        "contract": "contracts/Audiophile.sol:Audiophile",
        "label": "productBoughtBy",
        "offset": 0,
        "slot": "0",
        "type": "t_mapping(t_uint256,t_array(t_address)dyn_storage)"
      },
      {
        "astId": 61,
        "contract": "contracts/Audiophile.sol:Audiophile",
        "label": "s_priceFeed",
        "offset": 0,
        "slot": "1",
        "type": "t_contract(AggregatorV3Interface)45"
      }
    ],
    "types": {
      "t_address": {
        "encoding": "inplace",
        "label": "address",
        "numberOfBytes": "20"
      },
      "t_array(t_address)dyn_storage": {
        "base": "t_address",
        "encoding": "dynamic_array",
        "label": "address[]",
        "numberOfBytes": "32"
      },
      "t_contract(AggregatorV3Interface)45": {
        "encoding": "inplace",
        "label": "contract AggregatorV3Interface",
        "numberOfBytes": "20"
      },
      "t_mapping(t_uint256,t_array(t_address)dyn_storage)": {
        "encoding": "mapping",
        "key": "t_uint256",
        "label": "mapping(uint256 => address[])",
        "numberOfBytes": "32",
        "value": "t_array(t_address)dyn_storage"
      },
      "t_uint256": {
        "encoding": "inplace",
        "label": "uint256",
        "numberOfBytes": "32"
      }
    }
  }
}