{
  "address": "0x36FE3d30166248fD5Da7d360e0f81E796318f686",
  "abi": [
    {
      "inputs": [
        {
          "internalType": "address",
          "name": "priceFeedAddress",
          "type": "address"
        },
        {
          "internalType": "address",
          "name": "owner",
          "type": "address"
        }
      ],
      "stateMutability": "nonpayable",
      "type": "constructor"
    },
    {
      "inputs": [],
      "name": "Audiophile_NotOwner",
      "type": "error"
    },
    {
      "inputs": [],
      "name": "Withdraw_NotSuccessful",
      "type": "error"
    },
    {
      "inputs": [
        {
          "internalType": "uint256",
          "name": "productId",
          "type": "uint256"
        }
      ],
      "name": "fund",
      "outputs": [],
      "stateMutability": "payable",
      "type": "function"
    },
    {
      "inputs": [],
      "name": "getBalance",
      "outputs": [
        {
          "internalType": "uint256",
          "name": "",
          "type": "uint256"
        }
      ],
      "stateMutability": "view",
      "type": "function"
    },
    {
      "inputs": [
        {
          "internalType": "uint256",
          "name": "amount",
          "type": "uint256"
        }
      ],
      "name": "getPrice",
      "outputs": [
        {
          "internalType": "uint256",
          "name": "",
          "type": "uint256"
        }
      ],
      "stateMutability": "view",
      "type": "function"
    },
    {
      "inputs": [
        {
          "internalType": "uint256",
          "name": "productId",
          "type": "uint256"
        }
      ],
      "name": "getProductBuyers",
      "outputs": [
        {
          "internalType": "address[]",
          "name": "",
          "type": "address[]"
        }
      ],
      "stateMutability": "view",
      "type": "function"
    },
    {
      "inputs": [
        {
          "internalType": "uint256",
          "name": "amount",
          "type": "uint256"
        },
        {
          "internalType": "address",
          "name": "receiver",
          "type": "address"
        }
      ],
      "name": "sendTo",
      "outputs": [],
      "stateMutability": "payable",
      "type": "function"
    }
  ],
  "transactionHash": "0x609ff5ebcf67ec3b5cbf0d792707fd8560e1f61beaf9b3b4461bdafb745afb4e",
  "args": [
    "0x694AA1769357215DE4FAC081bf1f309aDC325306",
    "0xDb3457f14a99cBCa05021d1eb396c89837970dCf"
  ],
  "numDeployments": 3,
  "solcInputHash": "eb3ce7b74e003edeadce00ab38dddf85",
  "bytecode": "0x60a060405234801561001057600080fd5b50604051610acb380380610acb83398181016040528101906100329190610111565b81600160006101000a81548173ffffffffffffffffffffffffffffffffffffffff021916908373ffffffffffffffffffffffffffffffffffffffff1602179055508073ffffffffffffffffffffffffffffffffffffffff1660808173ffffffffffffffffffffffffffffffffffffffff16815250505050610151565b600080fd5b600073ffffffffffffffffffffffffffffffffffffffff82169050919050565b60006100de826100b3565b9050919050565b6100ee816100d3565b81146100f957600080fd5b50565b60008151905061010b816100e5565b92915050565b60008060408385031215610128576101276100ae565b5b6000610136858286016100fc565b9250506020610147858286016100fc565b9150509250929050565b60805161095f61016c60003960006101d6015261095f6000f3fe60806040526004361061004a5760003560e01c80630fb9398f1461004f57806312065fe01461008c578063b3d05678146100b7578063ca1d209d146100d3578063e7572230146100ef575b600080fd5b34801561005b57600080fd5b50610076600480360381019061007191906104bd565b61012c565b60405161008391906105da565b60405180910390f35b34801561009857600080fd5b506100a16101cc565b6040516100ae919061060b565b60405180910390f35b6100d160048036038101906100cc9190610652565b6101d4565b005b6100ed60048036038101906100e891906104bd565b610301565b005b3480156100fb57600080fd5b50610116600480360381019061011191906104bd565b610377565b604051610123919061060b565b60405180910390f35b60606000808381526020019081526020016000208054806020026020016040519081016040528092919081815260200182805480156101c057602002820191906000526020600020905b8160009054906101000a900473ffffffffffffffffffffffffffffffffffffffff1673ffffffffffffffffffffffffffffffffffffffff1681526020019060010190808311610176575b50505050509050919050565b600047905090565b7f000000000000000000000000000000000000000000000000000000000000000073ffffffffffffffffffffffffffffffffffffffff163373ffffffffffffffffffffffffffffffffffffffff1614610259576040517fca0d8feb00000000000000000000000000000000000000000000000000000000815260040160405180910390fd5b60008173ffffffffffffffffffffffffffffffffffffffff168360405161027f906106c3565b60006040518083038185875af1925050503d80600081146102bc576040519150601f19603f3d011682016040523d82523d6000602084013e6102c1565b606091505b50509050806102fc576040517f1dce298d00000000000000000000000000000000000000000000000000000000815260040160405180910390fd5b505050565b600080828152602001908152602001600020339080600181540180825580915050600190039060005260206000200160009091909190916101000a81548173ffffffffffffffffffffffffffffffffffffffff021916908373ffffffffffffffffffffffffffffffffffffffff16021790555050565b60006103ae600160009054906101000a900473ffffffffffffffffffffffffffffffffffffffff16836103b590919063ffffffff16565b9050919050565b6000806103c1836103f1565b9050600081670de0b6b3a7640000866103da9190610707565b6103e49190610778565b9050809250505092915050565b6000808273ffffffffffffffffffffffffffffffffffffffff1663feaf968c6040518163ffffffff1660e01b815260040160a060405180830381865afa15801561043f573d6000803e3d6000fd5b505050506040513d601f19601f820116820180604052508101906104639190610836565b5050509150506402540be4008161047a91906108b1565b915050919050565b600080fd5b6000819050919050565b61049a81610487565b81146104a557600080fd5b50565b6000813590506104b781610491565b92915050565b6000602082840312156104d3576104d2610482565b5b60006104e1848285016104a8565b91505092915050565b600081519050919050565b600082825260208201905092915050565b6000819050602082019050919050565b600073ffffffffffffffffffffffffffffffffffffffff82169050919050565b600061054182610516565b9050919050565b61055181610536565b82525050565b60006105638383610548565b60208301905092915050565b6000602082019050919050565b6000610587826104ea565b61059181856104f5565b935061059c83610506565b8060005b838110156105cd5781516105b48882610557565b97506105bf8361056f565b9250506001810190506105a0565b5085935050505092915050565b600060208201905081810360008301526105f4818461057c565b905092915050565b61060581610487565b82525050565b600060208201905061062060008301846105fc565b92915050565b61062f81610536565b811461063a57600080fd5b50565b60008135905061064c81610626565b92915050565b6000806040838503121561066957610668610482565b5b6000610677858286016104a8565b92505060206106888582860161063d565b9150509250929050565b600081905092915050565b50565b60006106ad600083610692565b91506106b88261069d565b600082019050919050565b60006106ce826106a0565b9150819050919050565b7f4e487b7100000000000000000000000000000000000000000000000000000000600052601160045260246000fd5b600061071282610487565b915061071d83610487565b925082820261072b81610487565b91508282048414831517610742576107416106d8565b5b5092915050565b7f4e487b7100000000000000000000000000000000000000000000000000000000600052601260045260246000fd5b600061078382610487565b915061078e83610487565b92508261079e5761079d610749565b5b828204905092915050565b600069ffffffffffffffffffff82169050919050565b6107c8816107a9565b81146107d357600080fd5b50565b6000815190506107e5816107bf565b92915050565b6000819050919050565b6107fe816107eb565b811461080957600080fd5b50565b60008151905061081b816107f5565b92915050565b60008151905061083081610491565b92915050565b600080600080600060a0868803121561085257610851610482565b5b6000610860888289016107d6565b95505060206108718882890161080c565b945050604061088288828901610821565b935050606061089388828901610821565b92505060806108a4888289016107d6565b9150509295509295909350565b60006108bc826107eb565b91506108c7836107eb565b92508282026108d5816107eb565b91507f8000000000000000000000000000000000000000000000000000000000000000841460008412161561090d5761090c6106d8565b5b8282058414831517610922576109216106d8565b5b509291505056fea264697066735822122057e26d55414648d36da41e2b0c1261b42cf58107783066940e995233fd4c467964736f6c63430008130033",
  "devdoc": {
    "kind": "dev",
    "methods": {},
    "version": 1
  },
  "userdoc": {
    "kind": "user",
    "methods": {},
    "version": 1
  },
  "storageLayout": {
    "storage": [
      {
        "astId": 60,
        "contract": "contracts/Audiophile.sol:Audiophile",
        "label": "productBoughtBy",
        "offset": 0,
        "slot": "0",
        "type": "t_mapping(t_uint256,t_array(t_address)dyn_storage)"
      },
      {
        "astId": 63,
        "contract": "contracts/Audiophile.sol:Audiophile",
        "label": "s_priceFeed",
        "offset": 0,
        "slot": "1",
        "type": "t_contract(AggregatorV3Interface)45"
      }
    ],
    "types": {
      "t_address": {
        "encoding": "inplace",
        "label": "address",
        "numberOfBytes": "20"
      },
      "t_array(t_address)dyn_storage": {
        "base": "t_address",
        "encoding": "dynamic_array",
        "label": "address[]",
        "numberOfBytes": "32"
      },
      "t_contract(AggregatorV3Interface)45": {
        "encoding": "inplace",
        "label": "contract AggregatorV3Interface",
        "numberOfBytes": "20"
      },
      "t_mapping(t_uint256,t_array(t_address)dyn_storage)": {
        "encoding": "mapping",
        "key": "t_uint256",
        "label": "mapping(uint256 => address[])",
        "numberOfBytes": "32",
        "value": "t_array(t_address)dyn_storage"
      },
      "t_uint256": {
        "encoding": "inplace",
        "label": "uint256",
        "numberOfBytes": "32"
      }
    }
  }
}